{"abi":[{"type":"constructor","inputs":[],"stateMutability":"nonpayable"},{"type":"receive","stateMutability":"payable"},{"type":"function","name":"addQuiz","inputs":[{"name":"q","type":"tuple","internalType":"struct Quiz.Quiz_item","components":[{"name":"id","type":"uint256","internalType":"uint256"},{"name":"question","type":"string","internalType":"string"},{"name":"answer","type":"string","internalType":"string"},{"name":"min_bet","type":"uint256","internalType":"uint256"},{"name":"max_bet","type":"uint256","internalType":"uint256"}]}],"outputs":[],"stateMutability":"nonpayable"},{"type":"function","name":"betToPlay","inputs":[{"name":"quizId","type":"uint256","internalType":"uint256"}],"outputs":[],"stateMutability":"payable"},{"type":"function","name":"bets","inputs":[{"name":"","type":"uint256","internalType":"uint256"},{"name":"","type":"address","internalType":"address"}],"outputs":[{"name":"","type":"uint256","internalType":"uint256"}],"stateMutability":"view"},{"type":"function","name":"claim","inputs":[],"outputs":[],"stateMutability":"nonpayable"},{"type":"function","name":"claim_money","inputs":[{"name":"","type":"address","internalType":"address"}],"outputs":[{"name":"","type":"uint256","internalType":"uint256"}],"stateMutability":"view"},{"type":"function","name":"getAnswer","inputs":[{"name":"quizId","type":"uint256","internalType":"uint256"}],"outputs":[{"name":"","type":"string","internalType":"string"}],"stateMutability":"view"},{"type":"function","name":"getQuiz","inputs":[{"name":"quizId","type":"uint256","internalType":"uint256"}],"outputs":[{"name":"","type":"tuple","internalType":"struct Quiz.Quiz_item","components":[{"name":"id","type":"uint256","internalType":"uint256"},{"name":"question","type":"string","internalType":"string"},{"name":"answer","type":"string","internalType":"string"},{"name":"min_bet","type":"uint256","internalType":"uint256"},{"name":"max_bet","type":"uint256","internalType":"uint256"}]}],"stateMutability":"view"},{"type":"function","name":"getQuizNum","inputs":[],"outputs":[{"name":"","type":"uint256","internalType":"uint256"}],"stateMutability":"view"},{"type":"function","name":"owner","inputs":[],"outputs":[{"name":"","type":"address","internalType":"address"}],"stateMutability":"view"},{"type":"function","name":"quizList","inputs":[{"name":"","type":"uint256","internalType":"uint256"}],"outputs":[{"name":"id","type":"uint256","internalType":"uint256"},{"name":"question","type":"string","internalType":"string"},{"name":"answer","type":"string","internalType":"string"},{"name":"min_bet","type":"uint256","internalType":"uint256"},{"name":"max_bet","type":"uint256","internalType":"uint256"}],"stateMutability":"view"},{"type":"function","name":"solveQuiz","inputs":[{"name":"quizId","type":"uint256","internalType":"uint256"},{"name":"ans","type":"string","internalType":"string"}],"outputs":[{"name":"","type":"bool","internalType":"bool"}],"stateMutability":"nonpayable"},{"type":"function","name":"vault_balance","inputs":[],"outputs":[{"name":"","type":"uint256","internalType":"uint256"}],"stateMutability":"view"}],"bytecode":{"object":"0x608060405234801561000f575f5ffd5b505f80546001600160a01b031916331781556040805160a08101825260606020808301828152838501838152928401868152608085019687526001808652865180880188526005815264312b313d3f60d81b818601529092528551808701909652908552601960f91b91850191909152929052670de0b6b3a7640000909152671bc16d674ec800009091526100a3816100a9565b50610322565b5f546001600160a01b031633146100f25760405162461bcd60e51b81526020600482015260096024820152682737ba1027bbb732b960b91b604482015260640160405180910390fd5b600180546100ff916101ab565b81526001805480820182555f91909152815160059091027fb10e2d527612073b26eecdfd717e6a320cf44b4afac2b0732d9fcbe2b7fa0cf6810191825560208301518392917fb10e2d527612073b26eecdfd717e6a320cf44b4afac2b0732d9fcbe2b7fa0cf701906101719082610268565b50604082015160028201906101869082610268565b5060608201516003820155608090910151600490910155506002805460010181555f52565b808201808211156101ca57634e487b7160e01b5f52601160045260245ffd5b92915050565b634e487b7160e01b5f52604160045260245ffd5b600181811c908216806101f857607f821691505b60208210810361021657634e487b7160e01b5f52602260045260245ffd5b50919050565b601f82111561026357805f5260205f20601f840160051c810160208510156102415750805b601f840160051c820191505b81811015610260575f815560010161024d565b50505b505050565b81516001600160401b03811115610281576102816101d0565b6102958161028f84546101e4565b8461021c565b6020601f8211600181146102c7575f83156102b05750848201515b5f19600385901b1c1916600184901b178455610260565b5f84815260208120601f198516915b828110156102f657878501518255602094850194600190920191016102d6565b508482101561031357868401515f19600387901b60f8161c191681555b50505050600190811b01905550565b61118c8061032f5f395ff3fe6080604052600436106100a8575f3560e01c80638f7b0961116100625780638f7b0961146101c6578063a3f7e096146101db578063b5ab58dc14610207578063c0da916f14610233578063f101b3f114610247578063f644b3bb14610266575f5ffd5b80632d0b3f6c146100ca5780634e71d92d1461010857806354c63f821461011e5780636b2b4588146101315780637487361f146101615780638da5cb5b14610190575f5ffd5b366100c6573460045f8282546100be9190610c67565b925050819055005b5f5ffd5b3480156100d5575f5ffd5b506100f56100e4366004610c95565b60036020525f908152604090205481565b6040519081526020015b60405180910390f35b348015610113575f5ffd5b5061011c610285565b005b61011c61012c366004610cb5565b610361565b34801561013c575f5ffd5b5061015061014b366004610cb5565b610530565b6040516100ff959493929190610cfa565b34801561016c575f5ffd5b5061018061017b366004610e01565b61067c565b60405190151581526020016100ff565b34801561019b575f5ffd5b505f546101ae906001600160a01b031681565b6040516001600160a01b0390911681526020016100ff565b3480156101d1575f5ffd5b506100f560045481565b3480156101e6575f5ffd5b506101fa6101f5366004610cb5565b610889565b6040516100ff9190610e45565b348015610212575f5ffd5b50610226610221366004610cb5565b610a6f565b6040516100ff9190610ea8565b34801561023e575f5ffd5b506001546100f5565b348015610252575f5ffd5b5061011c610261366004610eba565b610b2a565b348015610271575f5ffd5b506100f5610280366004610f71565b610c28565b335f90815260036020526040902054806102d25760405162461bcd60e51b8152602060048201526009602482015268139bc81c995dd85c9960ba1b60448201526064015b60405180910390fd5b8060045410156103245760405162461bcd60e51b815260206004820152601c60248201527f4e6f7420656e6f7567682066756e647320696e20636f6e74726163740000000060448201526064016102c9565b604051339082156108fc029083905f818181858888f1935050505015801561034e573d5f5f3e3d5ffd5b5050335f90815260036020526040812055565b5f8111801561037257506001548111155b61038e5760405162461bcd60e51b81526004016102c990610f9b565b600161039a8183610fc3565b815481106103aa576103aa610fd6565b905f5260205f2090600502016003015434101580156103f4575060016103d08183610fc3565b815481106103e0576103e0610fd6565b905f5260205f209060050201600401543411155b61042f5760405162461bcd60e51b815260206004820152600c60248201526b4265742069732077726f6e6760a01b60448201526064016102c9565b600161043b8183610fc3565b8154811061044b5761044b610fd6565b905f5260205f20906005020160040154600260018361046a9190610fc3565b8154811061047a5761047a610fd6565b5f91825260208083203384529091019052604090205411156104cd5760405162461bcd60e51b815260206004820152600c60248201526b4265742069732077726f6e6760a01b60448201526064016102c9565b3460026104db600184610fc3565b815481106104eb576104eb610fd6565b5f91825260208083203384529091019052604081208054909190610510908490610c67565b925050819055503460045f8282546105289190610c67565b909155505050565b6001818154811061053f575f80fd5b5f918252602090912060059091020180546001820180549193509061056390610fea565b80601f016020809104026020016040519081016040528092919081815260200182805461058f90610fea565b80156105da5780601f106105b1576101008083540402835291602001916105da565b820191905f5260205f20905b8154815290600101906020018083116105bd57829003601f168201915b5050505050908060020180546105ef90610fea565b80601f016020809104026020016040519081016040528092919081815260200182805461061b90610fea565b80156106665780601f1061063d57610100808354040283529160200191610666565b820191905f5260205f20905b81548152906001019060200180831161064957829003601f168201915b5050505050908060030154908060040154905085565b5f5f8311801561068e57506001548311155b6106aa5760405162461bcd60e51b81526004016102c990610f9b565b5f60026106b8600186610fc3565b815481106106c8576106c8610fd6565b5f9182526020808320338452909101905260409020541161071a5760405162461bcd60e51b815260206004820152600c60248201526b4e6f2042657474696e67212160a01b60448201526064016102c9565b5f6002610728600186610fc3565b8154811061073857610738610fd6565b5f918252602080832033845290910190526040812054915061075b826002611022565b905061076685610a6f565b6040516020016107769190611039565b604051602081830303815290604052805190602001208460405160200161079d9190611039565b604051602081830303815290604052805190602001200361082f578060045f8282546107c99190610fc3565b909155505f905060026107dd600188610fc3565b815481106107ed576107ed610fd6565b5f9182526020808320338452909101815260408083209390935560039052908120805483929061081e908490610c67565b909155506001935061088392505050565b5f600261083d600188610fc3565b8154811061084d5761084d610fd6565b5f91825260208083203384529091019052604081209190915560048054849290610878908490610c67565b909155505f93505050505b92915050565b6108b86040518060a001604052805f815260200160608152602001606081526020015f81526020015f81525090565b5f821180156108c957506001548211155b6108e55760405162461bcd60e51b81526004016102c990610f9b565b5f60016108f28185610fc3565b8154811061090257610902610fd6565b905f5260205f2090600502016040518060a00160405290815f820154815260200160018201805461093290610fea565b80601f016020809104026020016040519081016040528092919081815260200182805461095e90610fea565b80156109a95780601f10610980576101008083540402835291602001916109a9565b820191905f5260205f20905b81548152906001019060200180831161098c57829003601f168201915b505050505081526020016002820180546109c290610fea565b80601f01602080910402602001604051908101604052809291908181526020018280546109ee90610fea565b8015610a395780601f10610a1057610100808354040283529160200191610a39565b820191905f5260205f20905b815481529060010190602001808311610a1c57829003601f168201915b50505091835250506003820154602080830191909152600490920154604091820152805191820181525f82528201529392505050565b60606001610a7d8184610fc3565b81548110610a8d57610a8d610fd6565b905f5260205f2090600502016002018054610aa790610fea565b80601f0160208091040260200160405190810160405280929190818152602001828054610ad390610fea565b8015610b1e5780601f10610af557610100808354040283529160200191610b1e565b820191905f5260205f20905b815481529060010190602001808311610b0157829003601f168201915b50505050509050919050565b5f546001600160a01b03163314610b6f5760405162461bcd60e51b81526020600482015260096024820152682737ba1027bbb732b960b91b60448201526064016102c9565b60018054610b7c91610c67565b81526001805480820182555f91909152815160059091027fb10e2d527612073b26eecdfd717e6a320cf44b4afac2b0732d9fcbe2b7fa0cf6810191825560208301518392917fb10e2d527612073b26eecdfd717e6a320cf44b4afac2b0732d9fcbe2b7fa0cf70190610bee908261109b565b5060408201516002820190610c03908261109b565b5060608201516003820155608090910151600490910155506002805460010181555f52565b60028281548110610c37575f80fd5b905f5260205f2001602052805f5260405f205f91509150505481565b634e487b7160e01b5f52601160045260245ffd5b8082018082111561088357610883610c53565b80356001600160a01b0381168114610c90575f5ffd5b919050565b5f60208284031215610ca5575f5ffd5b610cae82610c7a565b9392505050565b5f60208284031215610cc5575f5ffd5b5035919050565b5f81518084528060208401602086015e5f602082860101526020601f19601f83011685010191505092915050565b85815260a060208201525f610d1260a0830187610ccc565b8281036040840152610d248187610ccc565b60608401959095525050608001529392505050565b634e487b7160e01b5f52604160045260245ffd5b60405160a0810167ffffffffffffffff81118282101715610d7057610d70610d39565b60405290565b5f82601f830112610d85575f5ffd5b813567ffffffffffffffff811115610d9f57610d9f610d39565b604051601f8201601f19908116603f0116810167ffffffffffffffff81118282101715610dce57610dce610d39565b604052818152838201602001851015610de5575f5ffd5b816020850160208301375f918101602001919091529392505050565b5f5f60408385031215610e12575f5ffd5b82359150602083013567ffffffffffffffff811115610e2f575f5ffd5b610e3b85828601610d76565b9150509250929050565b60208152815160208201525f602083015160a06040840152610e6a60c0840182610ccc565b90506040840151601f19848303016060850152610e878282610ccc565b91505060608401516080840152608084015160a08401528091505092915050565b602081525f610cae6020830184610ccc565b5f60208284031215610eca575f5ffd5b813567ffffffffffffffff811115610ee0575f5ffd5b820160a08185031215610ef1575f5ffd5b610ef9610d4d565b81358152602082013567ffffffffffffffff811115610f16575f5ffd5b610f2286828501610d76565b602083015250604082013567ffffffffffffffff811115610f41575f5ffd5b610f4d86828501610d76565b60408301525060608281013590820152608091820135918101919091529392505050565b5f5f60408385031215610f82575f5ffd5b82359150610f9260208401610c7a565b90509250929050565b6020808252600e908201526d125b9d985b1a59081c5d5a5e925960921b604082015260600190565b8181038181111561088357610883610c53565b634e487b7160e01b5f52603260045260245ffd5b600181811c90821680610ffe57607f821691505b60208210810361101c57634e487b7160e01b5f52602260045260245ffd5b50919050565b808202811582820484141761088357610883610c53565b5f82518060208501845e5f920191825250919050565b601f82111561109657805f5260205f20601f840160051c810160208510156110745750805b601f840160051c820191505b81811015611093575f8155600101611080565b50505b505050565b815167ffffffffffffffff8111156110b5576110b5610d39565b6110c9816110c38454610fea565b8461104f565b6020601f8211600181146110fb575f83156110e45750848201515b5f19600385901b1c1916600184901b178455611093565b5f84815260208120601f198516915b8281101561112a578785015182556020948501946001909201910161110a565b508482101561114757868401515f19600387901b60f8161c191681555b50505050600190811b0190555056fea2646970667358221220f9797dc57843e1377f07003799c0704edec165e6a0a3ca2ac2eda992d18991ef64736f6c634300081c0033","linkReferences":{}},"methodIdentifiers":{"addQuiz((uint256,string,string,uint256,uint256))":"f101b3f1","betToPlay(uint256)":"54c63f82","bets(uint256,address)":"f644b3bb","claim()":"4e71d92d","claim_money(address)":"2d0b3f6c","getAnswer(uint256)":"b5ab58dc","getQuiz(uint256)":"a3f7e096","getQuizNum()":"c0da916f","owner()":"8da5cb5b","quizList(uint256)":"6b2b4588","solveQuiz(uint256,string)":"7487361f","vault_balance()":"8f7b0961"},"id":20}