{"abi":[{"type":"constructor","inputs":[],"stateMutability":"nonpayable"},{"type":"receive","stateMutability":"payable"},{"type":"function","name":"addQuiz","inputs":[{"name":"q","type":"tuple","internalType":"struct Quiz.Quiz_item","components":[{"name":"id","type":"uint256","internalType":"uint256"},{"name":"question","type":"string","internalType":"string"},{"name":"answer","type":"string","internalType":"string"},{"name":"min_bet","type":"uint256","internalType":"uint256"},{"name":"max_bet","type":"uint256","internalType":"uint256"}]}],"outputs":[],"stateMutability":"nonpayable"},{"type":"function","name":"betToPlay","inputs":[{"name":"quizId","type":"uint256","internalType":"uint256"}],"outputs":[],"stateMutability":"payable"},{"type":"function","name":"bets","inputs":[{"name":"","type":"uint256","internalType":"uint256"},{"name":"","type":"address","internalType":"address"}],"outputs":[{"name":"","type":"uint256","internalType":"uint256"}],"stateMutability":"view"},{"type":"function","name":"claim","inputs":[],"outputs":[],"stateMutability":"nonpayable"},{"type":"function","name":"claim_money","inputs":[{"name":"","type":"address","internalType":"address"}],"outputs":[{"name":"","type":"uint256","internalType":"uint256"}],"stateMutability":"view"},{"type":"function","name":"getAnswer","inputs":[{"name":"quizId","type":"uint256","internalType":"uint256"}],"outputs":[{"name":"","type":"string","internalType":"string"}],"stateMutability":"view"},{"type":"function","name":"getQuiz","inputs":[{"name":"quizId","type":"uint256","internalType":"uint256"}],"outputs":[{"name":"","type":"tuple","internalType":"struct Quiz.Quiz_item","components":[{"name":"id","type":"uint256","internalType":"uint256"},{"name":"question","type":"string","internalType":"string"},{"name":"answer","type":"string","internalType":"string"},{"name":"min_bet","type":"uint256","internalType":"uint256"},{"name":"max_bet","type":"uint256","internalType":"uint256"}]}],"stateMutability":"view"},{"type":"function","name":"getQuizNum","inputs":[],"outputs":[{"name":"","type":"uint256","internalType":"uint256"}],"stateMutability":"view"},{"type":"function","name":"owner","inputs":[],"outputs":[{"name":"","type":"address","internalType":"address"}],"stateMutability":"view"},{"type":"function","name":"quizList","inputs":[{"name":"","type":"uint256","internalType":"uint256"}],"outputs":[{"name":"id","type":"uint256","internalType":"uint256"},{"name":"question","type":"string","internalType":"string"},{"name":"answer","type":"string","internalType":"string"},{"name":"min_bet","type":"uint256","internalType":"uint256"},{"name":"max_bet","type":"uint256","internalType":"uint256"}],"stateMutability":"view"},{"type":"function","name":"solveQuiz","inputs":[{"name":"quizId","type":"uint256","internalType":"uint256"},{"name":"ans","type":"string","internalType":"string"}],"outputs":[{"name":"","type":"bool","internalType":"bool"}],"stateMutability":"nonpayable"},{"type":"function","name":"vault_balance","inputs":[],"outputs":[{"name":"","type":"uint256","internalType":"uint256"}],"stateMutability":"view"}],"bytecode":{"object":"0x608060405234801561000f575f5ffd5b505f80546001600160a01b031916331781556040805160a08101825260606020808301828152838501838152928401868152608085019687526001808652865180880188526005815264312b313d3f60d81b818601529092528551808701909652908552601960f91b91850191909152929052670de0b6b3a7640000909152671bc16d674ec800009091526100a3816100a9565b50610322565b5f546001600160a01b031633146100f25760405162461bcd60e51b81526020600482015260096024820152682737ba1027bbb732b960b91b604482015260640160405180910390fd5b600180546100ff916101ab565b81526001805480820182555f91909152815160059091027fb10e2d527612073b26eecdfd717e6a320cf44b4afac2b0732d9fcbe2b7fa0cf6810191825560208301518392917fb10e2d527612073b26eecdfd717e6a320cf44b4afac2b0732d9fcbe2b7fa0cf701906101719082610268565b50604082015160028201906101869082610268565b5060608201516003820155608090910151600490910155506002805460010181555f52565b808201808211156101ca57634e487b7160e01b5f52601160045260245ffd5b92915050565b634e487b7160e01b5f52604160045260245ffd5b600181811c908216806101f857607f821691505b60208210810361021657634e487b7160e01b5f52602260045260245ffd5b50919050565b601f82111561026357805f5260205f20601f840160051c810160208510156102415750805b601f840160051c820191505b81811015610260575f815560010161024d565b50505b505050565b81516001600160401b03811115610281576102816101d0565b6102958161028f84546101e4565b8461021c565b6020601f8211600181146102c7575f83156102b05750848201515b5f19600385901b1c1916600184901b178455610260565b5f84815260208120601f198516915b828110156102f657878501518255602094850194600190920191016102d6565b508482101561031357868401515f19600387901b60f8161c191681555b50505050600190811b01905550565b61112c8061032f5f395ff3fe6080604052600436106100a8575f3560e01c80638f7b0961116100625780638f7b0961146101c6578063a3f7e096146101db578063b5ab58dc14610207578063c0da916f14610233578063f101b3f114610247578063f644b3bb14610266575f5ffd5b80632d0b3f6c146100ca5780634e71d92d1461010857806354c63f821461011e5780636b2b4588146101315780637487361f146101615780638da5cb5b14610190575f5ffd5b366100c6573460045f8282546100be9190610c07565b925050819055005b5f5ffd5b3480156100d5575f5ffd5b506100f56100e4366004610c35565b60036020525f908152604090205481565b6040519081526020015b60405180910390f35b348015610113575f5ffd5b5061011c610285565b005b61011c61012c366004610c55565b61030e565b34801561013c575f5ffd5b5061015061014b366004610c55565b6104d0565b6040516100ff959493929190610c9a565b34801561016c575f5ffd5b5061018061017b366004610da1565b61061c565b60405190151581526020016100ff565b34801561019b575f5ffd5b505f546101ae906001600160a01b031681565b6040516001600160a01b0390911681526020016100ff565b3480156101d1575f5ffd5b506100f560045481565b3480156101e6575f5ffd5b506101fa6101f5366004610c55565b610829565b6040516100ff9190610de5565b348015610212575f5ffd5b50610226610221366004610c55565b610a0f565b6040516100ff9190610e48565b34801561023e575f5ffd5b506001546100f5565b348015610252575f5ffd5b5061011c610261366004610e5a565b610aca565b348015610271575f5ffd5b506100f5610280366004610f11565b610bc8565b335f90815260036020526040902054806102d25760405162461bcd60e51b8152602060048201526009602482015268139bc81c995dd85c9960ba1b60448201526064015b60405180910390fd5b335f818152600360205260408082208290555183156108fc0291849190818181858888f1935050505015801561030a573d5f5f3e3d5ffd5b5050565b5f8111801561031f57506001548111155b61033b5760405162461bcd60e51b81526004016102c990610f3b565b60016103478183610f63565b8154811061035757610357610f76565b905f5260205f2090600502016003015434101580156103a15750600161037d8183610f63565b8154811061038d5761038d610f76565b905f5260205f209060050201600401543411155b6103dc5760405162461bcd60e51b815260206004820152600c60248201526b4265742069732077726f6e6760a01b60448201526064016102c9565b60016103e88183610f63565b815481106103f8576103f8610f76565b905f5260205f209060050201600401543460026001846104189190610f63565b8154811061042857610428610f76565b5f9182526020808320338452909101905260409020546104489190610c07565b11156104855760405162461bcd60e51b815260206004820152600c60248201526b4265742069732077726f6e6760a01b60448201526064016102c9565b346002610493600184610f63565b815481106104a3576104a3610f76565b5f918252602080832033845290910190526040812080549091906104c8908490610c07565b909155505050565b600181815481106104df575f80fd5b5f918252602090912060059091020180546001820180549193509061050390610f8a565b80601f016020809104026020016040519081016040528092919081815260200182805461052f90610f8a565b801561057a5780601f106105515761010080835404028352916020019161057a565b820191905f5260205f20905b81548152906001019060200180831161055d57829003601f168201915b50505050509080600201805461058f90610f8a565b80601f01602080910402602001604051908101604052809291908181526020018280546105bb90610f8a565b80156106065780601f106105dd57610100808354040283529160200191610606565b820191905f5260205f20905b8154815290600101906020018083116105e957829003601f168201915b5050505050908060030154908060040154905085565b5f5f8311801561062e57506001548311155b61064a5760405162461bcd60e51b81526004016102c990610f3b565b5f6002610658600186610f63565b8154811061066857610668610f76565b5f918252602080832033845290910190526040902054116106ba5760405162461bcd60e51b815260206004820152600c60248201526b4e6f2042657474696e67212160a01b60448201526064016102c9565b5f60026106c8600186610f63565b815481106106d8576106d8610f76565b5f91825260208083203384529091019052604081205491506106fb826002610fc2565b905061070685610a0f565b6040516020016107169190610fd9565b604051602081830303815290604052805190602001208460405160200161073d9190610fd9565b60405160208183030381529060405280519060200120036107cf578060045f8282546107699190610f63565b909155505f9050600261077d600188610f63565b8154811061078d5761078d610f76565b5f918252602080832033845290910181526040808320939093556003905290812080548392906107be908490610c07565b909155506001935061082392505050565b5f60026107dd600188610f63565b815481106107ed576107ed610f76565b5f91825260208083203384529091019052604081209190915560048054849290610818908490610c07565b909155505f93505050505b92915050565b6108586040518060a001604052805f815260200160608152602001606081526020015f81526020015f81525090565b5f8211801561086957506001548211155b6108855760405162461bcd60e51b81526004016102c990610f3b565b5f60016108928185610f63565b815481106108a2576108a2610f76565b905f5260205f2090600502016040518060a00160405290815f82015481526020016001820180546108d290610f8a565b80601f01602080910402602001604051908101604052809291908181526020018280546108fe90610f8a565b80156109495780601f1061092057610100808354040283529160200191610949565b820191905f5260205f20905b81548152906001019060200180831161092c57829003601f168201915b5050505050815260200160028201805461096290610f8a565b80601f016020809104026020016040519081016040528092919081815260200182805461098e90610f8a565b80156109d95780601f106109b0576101008083540402835291602001916109d9565b820191905f5260205f20905b8154815290600101906020018083116109bc57829003601f168201915b50505091835250506003820154602080830191909152600490920154604091820152805191820181525f82528201529392505050565b60606001610a1d8184610f63565b81548110610a2d57610a2d610f76565b905f5260205f2090600502016002018054610a4790610f8a565b80601f0160208091040260200160405190810160405280929190818152602001828054610a7390610f8a565b8015610abe5780601f10610a9557610100808354040283529160200191610abe565b820191905f5260205f20905b815481529060010190602001808311610aa157829003601f168201915b50505050509050919050565b5f546001600160a01b03163314610b0f5760405162461bcd60e51b81526020600482015260096024820152682737ba1027bbb732b960b91b60448201526064016102c9565b60018054610b1c91610c07565b81526001805480820182555f91909152815160059091027fb10e2d527612073b26eecdfd717e6a320cf44b4afac2b0732d9fcbe2b7fa0cf6810191825560208301518392917fb10e2d527612073b26eecdfd717e6a320cf44b4afac2b0732d9fcbe2b7fa0cf70190610b8e908261103b565b5060408201516002820190610ba3908261103b565b5060608201516003820155608090910151600490910155506002805460010181555f52565b60028281548110610bd7575f80fd5b905f5260205f2001602052805f5260405f205f91509150505481565b634e487b7160e01b5f52601160045260245ffd5b8082018082111561082357610823610bf3565b80356001600160a01b0381168114610c30575f5ffd5b919050565b5f60208284031215610c45575f5ffd5b610c4e82610c1a565b9392505050565b5f60208284031215610c65575f5ffd5b5035919050565b5f81518084528060208401602086015e5f602082860101526020601f19601f83011685010191505092915050565b85815260a060208201525f610cb260a0830187610c6c565b8281036040840152610cc48187610c6c565b60608401959095525050608001529392505050565b634e487b7160e01b5f52604160045260245ffd5b60405160a0810167ffffffffffffffff81118282101715610d1057610d10610cd9565b60405290565b5f82601f830112610d25575f5ffd5b813567ffffffffffffffff811115610d3f57610d3f610cd9565b604051601f8201601f19908116603f0116810167ffffffffffffffff81118282101715610d6e57610d6e610cd9565b604052818152838201602001851015610d85575f5ffd5b816020850160208301375f918101602001919091529392505050565b5f5f60408385031215610db2575f5ffd5b82359150602083013567ffffffffffffffff811115610dcf575f5ffd5b610ddb85828601610d16565b9150509250929050565b60208152815160208201525f602083015160a06040840152610e0a60c0840182610c6c565b90506040840151601f19848303016060850152610e278282610c6c565b91505060608401516080840152608084015160a08401528091505092915050565b602081525f610c4e6020830184610c6c565b5f60208284031215610e6a575f5ffd5b813567ffffffffffffffff811115610e80575f5ffd5b820160a08185031215610e91575f5ffd5b610e99610ced565b81358152602082013567ffffffffffffffff811115610eb6575f5ffd5b610ec286828501610d16565b602083015250604082013567ffffffffffffffff811115610ee1575f5ffd5b610eed86828501610d16565b60408301525060608281013590820152608091820135918101919091529392505050565b5f5f60408385031215610f22575f5ffd5b82359150610f3260208401610c1a565b90509250929050565b6020808252600e908201526d125b9d985b1a59081c5d5a5e925960921b604082015260600190565b8181038181111561082357610823610bf3565b634e487b7160e01b5f52603260045260245ffd5b600181811c90821680610f9e57607f821691505b602082108103610fbc57634e487b7160e01b5f52602260045260245ffd5b50919050565b808202811582820484141761082357610823610bf3565b5f82518060208501845e5f920191825250919050565b601f82111561103657805f5260205f20601f840160051c810160208510156110145750805b601f840160051c820191505b81811015611033575f8155600101611020565b50505b505050565b815167ffffffffffffffff81111561105557611055610cd9565b611069816110638454610f8a565b84610fef565b6020601f82116001811461109b575f83156110845750848201515b5f19600385901b1c1916600184901b178455611033565b5f84815260208120601f198516915b828110156110ca57878501518255602094850194600190920191016110aa565b50848210156110e757868401515f19600387901b60f8161c191681555b50505050600190811b0190555056fea2646970667358221220eb7026e03cd3fccd4da1050dba52e8a4e68bbdfa80be62614f60d39493a5bc3764736f6c634300081c0033","linkReferences":{}},"methodIdentifiers":{"addQuiz((uint256,string,string,uint256,uint256))":"f101b3f1","betToPlay(uint256)":"54c63f82","bets(uint256,address)":"f644b3bb","claim()":"4e71d92d","claim_money(address)":"2d0b3f6c","getAnswer(uint256)":"b5ab58dc","getQuiz(uint256)":"a3f7e096","getQuizNum()":"c0da916f","owner()":"8da5cb5b","quizList(uint256)":"6b2b4588","solveQuiz(uint256,string)":"7487361f","vault_balance()":"8f7b0961"},"id":18}